:100000000C945D000C9485000C9485000C94850084
:100010000C9485000C9485000C9485000C9485004C
:100020000C9485000C9485000C9485000C9485003C
:100030000C9485000C9485000C9485000C9485002C
:100040000C94A3040C9485000C9413050C94ED04FB
:100050000C9485000C9485000C9485000C9485000C
:100060000C9485000C94850000000008000201003B
:100070000003040700000000000000000000000072
:10008000250028002B0000000000240027002A0083
:10009000040404040404040402020202020203032E
:1000A0000303030301020408102040800102040836
:1000B0001020010204081020450511241FBECFEFB7
:1000C000D8E0DEBFCDBF11E0A0E0B1E0ECEEF5E19D
:1000D00002C005900D92A038B107D9F722E0A0E840
:1000E000B1E001C01D92A234B207E1F710E0CDE506
:1000F000D0E004C02197FE010E94EE0ACC35D10762
:10010000C9F70E9490050C94F40A0C94000090E04A
:10011000FC01EC55FF4F249180579F4FFC018491C7
:10012000882399F090E0880F991FFC01EA57FF4F50
:10013000A591B491FC01E458FF4F859194918FB73C
:10014000F894EC91E22BEC938FBF089590E0FC01C2
:10015000E859FF4F2491FC01EC55FF4F3491FC010D
:10016000E057FF4FE491EE23C9F0222339F023300A
:1001700001F1A8F4213019F1223029F1F0E0EE0F5D
:10018000FF1FE458FF4FA591B4918FB7F894EC91FD
:10019000611126C030953E233C938FBF08952730D0
:1001A000A9F02830C9F0243049F7809180008F7D74
:1001B00003C0809180008F7780938000DFCF84B56B
:1001C0008F7784BDDBCF84B58F7DFBCF8091B0006E
:1001D0008F778093B000D2CF8091B0008F7DF9CF20
:1001E0003E2BDACFDC01ED91FC910190F081E02D06
:1001F0000994AF92BF92CF92DF92EF92FF920F934A
:100200001F93CF93DF936C017B018B01040F151FAC
:10021000EB015E01AE18BF08C017D10759F0699114
:10022000D601ED91FC910190F081E02DC601099578
:10023000892B79F7C501DF91CF911F910F91FF9025
:10024000EF90DF90CF90BF90AF900895FC01538D59
:10025000448D252F30E0842F90E0821B930B5417A0
:1002600010F0CF96089501970895FC01918D828D2D
:10027000981761F0A28DAE0FBF2FB11D5D968C91C6
:10028000928D9F5F9F73928F90E008958FEF9FEF05
:100290000895FC01918D828D981731F0828DE80FC1
:1002A000F11D858D90E008958FEF9FEF0895FC017B
:1002B000918D228D892F90E0805C9F4F821B910948
:1002C0008F73992708958DE891E00E94570121E0EE
:1002D000892B09F420E0822F089580E090E0892B9B
:1002E00029F00E94630181110C9400000895FC0123
:1002F000A48DA80FB92FB11DA35ABF4F2C91848D87
:1003000090E001968F739927848FA689B7892C93E3
:10031000A089B1898C91837080648C93938D848D36
:10032000981306C00288F389E02D80818F7D808339
:100330000895EF92FF920F931F93CF93DF93EC01F9
:1003400081E0888F9B8D8C8D98131AC0E889F9897C
:10035000808185FF15C09FB7F894EE89FF8960837F
:10036000E889F98980818370806480839FBF81E000
:1003700090E0DF91CF911F910F91FF90EF90089542
:10038000F62E0B8D10E00F5F1F4F0F731127E02E1D
:100390008C8D8E110CC00FB607FCFACFE889F98955
:1003A000808185FFF5CFCE010E947701F1CFEB8DE3
:1003B000EC0FFD2FF11DE35AFF4FF0829FB7F89429
:1003C0000B8FEA89FB8980818062CFCFCF93DF9347
:1003D000EC01888D8823B9F0AA89BB89E889F9895D
:1003E0008C9185FD03C0808186FD0DC00FB607FC92
:1003F000F7CF8C9185FFF2CF808185FFEDCFCE01C5
:100400000E947701E9CFDF91CF910895089590E0A0
:1004100080E00895CF93DF93EC0160E08E810E942D
:10042000A60061E08E810E94A60060E08E810E949D
:10043000A6008BE891E00197F1F7DF91CF91089545
:10044000CF92DF92EF92FF920F931F93CF93DF93A0
:100450006C017C0187E0E80EF11CD0E0C0E0062FC3
:1004600010E0B8010C2E02C0759567950A94E2F76A
:100470006170F70181917F010E94A6002196C4302E
:10048000D10579F7C601DF91CF911F910F91FF90B0
:10049000EF90DF90CF900C940A02CF92DF92EF9210
:1004A000FF920F931F93CF93DF93EC01F62E642FEF
:1004B0008C810E94A6008D818F3F19F060E00E9420
:1004C000A6000F2D10E08F8584FF25C06E0187E008
:1004D000C80ED11CF12CE12CB8010E2C02C0759570
:1004E00067950A94E2F76170F60181916F010E94AD
:1004F000A600FFEFEF1AFF0A88E0E816F10461F7A3
:10050000CE01DF91CF911F910F91FF90EF90DF907F
:10051000CF900C940A02B80184E0759567958A958E
:10052000E1F7CE010E9420026F2DCE01DF91CF9125
:100530001F910F91FF90EF90DF90CF900C942002CD
:1005400040E0682F8AE292E00C944D02CF93DF9353
:10055000613029F09091390298609093390260934C
:100560003D0210923E0290E490933F02809340023D
:10057000805C8093410280912E020E9487008091CE
:100580002F028F3F11F00E948700809130020E945D
:100590008700CAE2D2E09E012A523240809139029D
:1005A00084FD0AC084E090E02196281739073CF4C6
:1005B0008E810E948700EFCF88E090E0F5CF8BE33B
:1005C0009DE00197F1F760E080912E020E94A60065
:1005D00060E0809130020E94A60080912F028F3F40
:1005E00019F060E00E94A6008091390284FD39C0B4
:1005F00063E08AE292E00E942002CBE4D6E4CE01DE
:100600000197F1F763E08AE292E00E9420022197CD
:10061000F1F763E08AE292E00E94200283E592E033
:100620000197F1F762E08AE292E00E942002809155
:10063000390280620E94A00284E080933A028CE03A
:100640000E94A00281E00E94A0028BE39FE101973B
:10065000F1F782E080933B0286E0DF91CF910C942A
:10066000A00280620E94A0028BE496E40197F1F759
:100670008091390280620E94A00283E592E0019796
:10068000F1F78091390280620E94A002D0CF909150
:100690003D02891710F08FEF890FE82FF0E0E65D3B
:1006A000FD4F848980680C94A00241E00E944D02B5
:1006B00081E090E00895FB0101900020E9F7319777
:1006C000AF01461B570BDC01ED91FC910280F381D9
:1006D000E02D09948F929F92AF92BF92EF92FF927A
:1006E0000F931F93CF93DF93CDB7DEB7A1970FB6CC
:1006F000F894DEBF0FBECDBF7C01FA01CB0119A279
:10070000223008F42AE08E010F5D1F4F822E912CBB
:10071000B12CA12CBF01A50194010E947A08F90116
:10072000CA016A300CF5605DD8016E938D01232BF0
:10073000242B252B79F790E080E0109721F0BD0164
:10074000C7010E945B03A1960FB6F894DEBF0FBEEF
:10075000CDBFDF91CF911F910F91FF90EF90BF9090
:10076000AF909F908F900895695CDECF2AE00C9443
:100770006A03AB01770F660B770B2AE00C946A03D0
:100780004F925F926F927F928F929F92AF92BF92A1
:10079000CF92DF92EF92FF920F931F93CF93DF934D
:1007A000EC016A017B01922EAB019601CB01B601EF
:1007B0000E94E20A6EE171E0811126C02601370134
:1007C000E89477F82FEF3FEF4FE75FE7C301B201FF
:1007D0000E94E20A81110CC02FEF3FEF4FE75FE765
:1007E000C301B2010E94180962E271E0181664F0B8
:1007F0002FEF3FEF4FE75FE4C701B6010E94700A99
:100800001816ACF466E271E0CE01DF91CF911F9132
:100810000F91FF90EF90DF90CF90BF90AF909F909F
:100820008F907F906F905F904F900C945B032FEFB1
:100830003FEF4FE75FECC701B6010E94180987FD43
:10084000E1CF20E030E0A901C701B6010E941809FC
:10085000B12CA12C87FF09C06DE2CE010E94F200ED
:100860005C01F7FAF094F7F8F094192D60E070E06D
:1008700080E09FE300E020E030E040E251E40E94AD
:100880001D0921E0200F01E02915A8F3A701960119
:100890000E94AC082B013C010E948F096B017C0176
:1008A0000E94BE099B01AC01C301B2010E94AB08CA
:1008B0002B013C012AE0B701A601CE010E946A0388
:1008C0007C016EE2CE010E94F200E80EF91EEA0CF5
:1008D000FB1C115020F120E030E040E251E4C30164
:1008E000B2010E94750A2B013C010E948F094B0145
:1008F000B12CA12C2AE0B501A401CE010E946A030B
:10090000E80EF91EC501B4010E94BE099B01AC01AD
:10091000C301B2010E94AB082B013C01DACFC70131
:10092000DF91CF911F910F91FF90EF90DF90CF90CB
:10093000BF90AF909F908F907F906F905F904F90FF
:1009400008950C945B031F920F920FB60F9211241F
:100950002F933F938F939F93AF93BF938091890180
:1009600090918A01A0918B01B0918C013091880106
:1009700023E0230F2D3758F50196A11DB11D2093BB
:1009800088018093890190938A01A0938B01B09391
:100990008C018091840190918501A0918601B09194
:1009A00087010196A11DB11D80938401909385015B
:1009B000A0938601B0938701BF91AF919F918F91D2
:1009C0003F912F910F900FBE0F901F90189526E822
:1009D000230F0296A11DB11DD2CF1F920F920FB609
:1009E0000F9211242F933F934F935F936F937F93B5
:1009F0008F939F93AF93BF93EF93FF938DE891E015
:100A00000E947701FF91EF91BF91AF919F918F91DC
:100A10007F916F915F914F913F912F910F900FBEFA
:100A20000F901F9018951F920F920FB60F921124DE
:100A30002F938F939F93EF93FF93E0919D01F091FC
:100A40009E018081E091A301F091A40182FD1BC071
:100A500090818091A6018F5F8F732091A7018217EB
:100A600041F0E091A601F0E0E357FE4F958F8093AF
:100A7000A601FF91EF919F918F912F910F900FBE43
:100A80000F901F9018958081F4CFEDE8F1E013826C
:100A9000128288EE93E0A0E0B0E084839583A68381
:100AA000B78384E091E09183808385EC90E0958723
:100AB000848784EC90E09787868780EC90E0918B28
:100AC000808B81EC90E0938B828B82EC90E0958B15
:100AD000848B86EC90E0978B868B118E128E138E12
:100AE000148EEAE2F2E01382128286E191E09183B1
:100AF00080838CE084838FEF85838BE0868385E021
:100B0000878384E0808783E0818782E08287138601
:100B1000148615861686178661E080E10C94A6027D
:100B2000CF93DF93CDB7DEB72E970FB6F894DEBF25
:100B30000FBECDBF789484B5826084BD84B58160DA
:100B400084BD85B5826085BD85B5816085BD809198
:100B50006E00816080936E00109281008091810010
:100B60008260809381008091810081608093810008
:100B7000809180008160809380008091B1008460CA
:100B80008093B1008091B00081608093B00080912B
:100B90007A00846080937A0080917A0082608093EA
:100BA0007A0080917A00816080937A0080917A0047
:100BB000806880937A001092C100E0919D01F091CD
:100BC0009E0182E08083E0919901F0919A01108268
:100BD000E0919B01F0919C018FEC80831092A50124
:100BE000E091A101F091A20186E08083E0919F0154
:100BF000F091A001808180618083E0919F01F0915C
:100C0000A001808188608083E0919F01F091A00124
:100C1000808180688083E0919F01F091A0018081B4
:100C20008F7D808364E084E10E94A60289E00E94B7
:100C3000870089E00E94870060E089E00E94A600AA
:100C400001E710E080E0282E80E0382E2FB7F894DE
:100C50008091890190918A01A0918B01B0918C01C2
:100C60002FBF40918001509181016091820170916C
:100C700083016C017D01C41AD50AE60AF70AB7019F
:100C8000A601443F51406105710508F408C28093F4
:100C9000800190938101A0938201B09383018FB76B
:100CA000F894C0908901D0908A01E0908B01F09077
:100CB0008C018FBFC701B60128EE33E040E050E061
:100CC0000E947A0829833A834B835C83C701B6016B
:100CD00020E83EEE46E350E00E947A082D833E83F2
:100CE0004F83588769817A818B819C8120E13EE026
:100CF00040E050E00E947A082CE330E040E050E011
:100D00000E947A0849015A0169817A818B819C810C
:100D10002CE330E040E050E00E947A086B017C0157
:100D200031E430937C0080917A00806480937A0073
:100D300080917A0086FDFCCFA0917800B091790077
:100D400025EE30E00E94E70A2FEF33E040E050E06C
:100D50000E945B0839013E872D872F3F310529F01E
:100D600024F0AFEFB0E0BE87AD87ED85FE85F7FFDD
:100D700002C01E861D8689E00E9487001614170493
:100D80000CF4D0C060E089E00E94A6002D853E856D
:100D9000B901330F880B990B0E94C00920E030E0A5
:100DA0004FE753E40E941D092B013C0120E030E095
:100DB00040E153E40E94750A2FE632E14BE650E42D
:100DC0000E941D0969877A878B879C876AE271E098
:100DD0008DE891E00E94A10489819A81AB81BC8158
:100DE00080319E40A105B10508F0ECC0B501A40119
:100DF0008DE891E00E94B60364E371E08DE891E034
:100E00000E94A104B701A6018DE891E00E94B603FB
:100E100068E371E08DE891E00E94A1046FE371E066
:100E20008DE891E00E94A1046D857E858DE891E0BA
:100E30000E94B9036EE471E08DE891E00E94A10484
:100E400020E030E048EC52E4C301B2010E94750A90
:100E50002B013C0121E030E0BC01A2018DE891E0D2
:100E60000E94C0036EE571E08DE891E00E94A1044C
:100E700022E030E049855A856B857C858DE891E0DC
:100E80000E94C0036AE671E08DE891E00E945B0376
:100E90006DE671E08DE891E00E945B0380E00E94C6
:100EA00047036AE271E08AE292E00E94A1048D8128
:100EB0009E81AF81B8850097A105B10509F491C065
:100EC000AC01BD018AE292E00E94B6036CE371E0DE
:100ED0008AE292E00E94A1049AE089169104A1049A
:100EE000B10430F460E771E08AE292E00E94A1046C
:100EF000B501A4018AE292E00E94B60365E371E0C5
:100F00008AE292E00E94A104AAE0CA16D104E10498
:100F1000F10408F079C060E771E08AE292E00E9493
:100F2000A10472C0FFEF6F16710414F061E02BCFC3
:100F3000F8018491833041F148F48130C9F0823066
:100F4000E9F0F0E86F1671048CF71CCF873041F19F
:100F5000883079F18430A9F7809180008062809395
:100F60008000AD85BE85B0938B00A0938A000ECF24
:100F700084B5806884BDFD85F7BD08CF84B58062E7
:100F800084BD2D8528BD02CF80918000806880932C
:100F900080008D859E859093890080938800F6CE91
:100FA0008091B00080688093B000BD85B093B3009D
:100FB000EDCE8091B00080628093B000ED85E0932B
:100FC000B400E4CE4D815E816F8178858DE891E03B
:100FD0000E94B6036BE371E08DE891E00E94A104EA
:100FE00005CFB501A4018AE292E00E94B60365E351
:100FF00071E08AE292E00E94A104BAE0CB16D1042B
:10100000E104F10408F487CFB701A6018AE292E077
:101010000E94B60369E371E08AE292E00E94A104B3
:1010200081E00E94470362E771E08AE292E00E9459
:10103000A1046D857E858AE292E00E94B90382E078
:101040000E94470361E571E08AE292E00E94A104F8
:1010500021E030E0B301A2018AE292E00E94C003E5
:101060006EE771E08AE292E00E94A10483E00E94B0
:10107000470362E671E08AE292E00E94A10422E066
:1010800030E049855A856B857C858AE292E00E9432
:10109000C0036AE671E08AE292E00E94A104211492
:1010A000310409F4D3CD0E946301882309F4CACD29
:1010B0000E940000C7CD052E97FB1EF400940E94ED
:1010C000720857FD07D00E947A0807FC03D04EF43F
:1010D0000C94720850954095309521953F4F4F4F95
:1010E0005F4F089590958095709561957F4F8F4FD4
:1010F0009F4F0895A1E21A2EAA1BBB1BFD010DC034
:10110000AA1FBB1FEE1FFF1FA217B307E407F507B7
:1011100020F0A21BB30BE40BF50B661F771F881F93
:10112000991F1A9469F760957095809590959B0129
:10113000AC01BD01CF010895A29FB001B39FC001D2
:10114000A39F700D811D1124911DB29F700D811DF3
:101150001124911D08955058BB27AA270E94C30847
:101160000C94360A0E94280A38F00E942F0A20F0B8
:1011700039F49F3F19F426F40C94250A0EF4E095F7
:10118000E7FB0C941F0AE92F0E94470A58F3BA178D
:10119000620773078407950720F079F4A6F50C948D
:1011A000690A0EF4E0950B2EBA2FA02D0B01B901A0
:1011B00090010C01CA01A0011124FF27591B99F0CD
:1011C000593F50F4503E68F11A16F040A22F232FD9
:1011D000342F4427585FF3CF469537952795A79529
:1011E000F0405395C9F77EF41F16BA0B620B730BD0
:1011F000840BBAF09150A1F0FF0FBB1F661F771F41
:10120000881FC2F70EC0BA0F621F731F841F48F4F5
:10121000879577956795B795F7959E3F08F0B0CF7E
:101220009395880F08F09927EE0F97958795089565
:101230000E94FB0908F481E008950E9431090C9492
:10124000360A0E942F0A58F00E94280A40F029F41A
:101250005F3F29F00C941F0A51110C946A0A0C94F8
:10126000250A0E94470A68F39923B1F3552391F3A5
:10127000951B550BBB27AA2762177307840738F005
:101280009F5F5F4F220F331F441FAA1FA9F335D062
:101290000E2E3AF0E0E832D091505040E695001C16
:1012A000CAF72BD0FE2F29D0660F771F881FBB1FD0
:1012B000261737074807AB07B0E809F0BB0B802DAE
:1012C000BF01FF2793585F4F3AF09E3F510578F0DA
:1012D0000C941F0A0C946A0A5F3FE4F3983ED4F31F
:1012E000869577956795B795F7959F5FC9F7880FAE
:1012F000911D9695879597F90895E1E0660F771F00
:10130000881FBB1F621773078407BA0720F0621B90
:10131000730B840BBA0BEE1F88F7E09508950E94BB
:101320004F0A88F09F5798F0B92F9927B751B0F01E
:10133000E1F0660F771F881F991F1AF0BA95C9F759
:1013400014C0B13091F00E94690AB1E008950C9484
:10135000690A672F782F8827B85F39F0B93FCCF337
:10136000869577956795B395D9F73EF490958095D6
:10137000709561957F4F8F4F9F4F0895E89409C0F6
:1013800097FB3EF490958095709561957F4F8F4FB8
:101390009F4F9923A9F0F92F96E9BB279395F695CE
:1013A000879577956795B795F111F8CFFAF4BB0F4C
:1013B00011F460FF1BC06F5F7F4F8F4F9F4F16C0B0
:1013C000882311F096E911C0772321F09EE8872F3A
:1013D000762F05C0662371F096E8862F70E060E0F6
:1013E0002AF09A95660F771F881FDAF7880F96956F
:1013F000879597F90895990F0008550FAA0BE0E813
:10140000FEEF16161706E807F907C0F012161306C6
:10141000E407F50798F0621B730B840B950B39F406
:101420000A2661F0232B242B252B21F408950A266C
:1014300009F4A140A6958FEF811D811D089597F9AC
:101440009F6780E870E060E008959FEF80EC08956A
:1014500000240A9416161706180609060895002493
:101460000A9412161306140605060895092E03940D
:10147000000C11F4882352F0BB0F40F4BF2B11F481
:1014800060FF04C06F5F7F4F8F4F9F4F089557FDE0
:101490009058440F551F59F05F3F71F04795880FE2
:1014A00097FB991F61F09F3F79F087950895121679
:1014B00013061406551FF2CF4695F1DF08C0161625
:1014C00017061806991FF1CF8695710561050894D6
:1014D0000895E894BB2766277727CB0197F90895ED
:1014E0000E94FB0908F48FEF08950E94880A0C946B
:1014F000360A0E94280A38F00E942F0A20F095230D
:1015000011F00C941F0A0C94250A11240C946A0AF9
:101510000E94470A70F3959FC1F3950F50E0551F45
:10152000629FF001729FBB27F00DB11D639FAA2738
:10153000F00DB11DAA1F649F6627B00DA11D661F87
:10154000829F2227B00DA11D621F739FB00DA11DA8
:10155000621F839FA00D611D221F749F3327A00D62
:10156000611D231F849F600D211D822F762F6A2FFE
:1015700011249F5750409AF0F1F088234AF0EE0F63
:10158000FF1FBB1F661F771F881F91505040A9F790
:101590009E3F510580F00C941F0A0C946A0A5F3F2D
:1015A000E4F3983ED4F3869577956795B795F795CC
:1015B000E7959F5FC1F7FE2B880F911D9695879544
:1015C00097F908950E94FB09880B990B08950E94D2
:1015D0009C08B7FF0895821B930B0895EE0FFF1F21
:0C15E0000590F491E02D0994F894FFCFE1
:1015EC00000000009901F9002601E60157013501C0
:1015FC004901000000005503F900070206026E6164
:10160C006E00696E66006F76660054696D65204FDA
:10161C006E3A2000206D20002073002068200020EE
:10162C007C2050776D2076616C75653A2000207CAB
:10163C002044757479204379636C653A2000252029
:10164C007C20506F7765723A20002057000D0A00FD
:10165C00300050776D2056616C75653A200025007E
:00000001FF
